:10000E003F065B4F666D7D077F6F777C395E79713A
:04001E00BFDFEFF75A
:030249000112009F
:1001DA00E4F580F5A074132512F8E6F580E5122FF0
:1001EA0090001E93F5A00512E512B50503E4F51279
:0101FA0022E2
:10021400E4F508F509759850438920758DFD758BB3
:08022400FDD28ED2AFD2AC2254
:080003008F993099FDC299228A
:10022C001201FBFF600C120003740129F9E43AFA85
:03023C0080EE222F
:030023000201A334
:1001A300C0E0C0D075D000C000C007309820C2980E
:1001B300740A2509F8A699AF090509740A2FF8E608
:1001C300B4AA03750801E509B40803750900D0074B
:0701D300D000D0D0D0E032D3
:0A023F00438901D2AFD2A9D28C226C
:100026007517AA751AFFE4F51B90000E93F515F5E2
:1000360016E4F51D12021412023FE508B401FBE5B1
:1000460009D3940340F474062509F8E6B4FFEBC21D
:10005600AC7518FF74072509F8E6FF74082509F83A
:10006600E6FEEF64EE7028D39E502FEE940A502AD7
:100076008E1DE51D75F00A8490000E93F515E51D9D
:1000860075F00A84E5F093F5167518EEEE8008BF54
:10009600DD087518DDE51D04F5197B007A00791772
:1000A60012022C7F08780AE4F608DFFCE4F509F56D
:0500B60008D2AC8085BA
:03000B00020147A8
:10014700C0E0C0F0C083C082C0D075D000C000C07E
:0D01570001C002C003C004C005C006C007FF
:10016400758CF8758A307D04E4FF1201DAE51CB55C
:100174001D02C291051CE51CB40A09751C00E51D8D
:040184006002D291B2
:10018800D007D006D005D004D003D002D001D000CB
:0B019800D0D0D082D083D0F0D0E03275
:030000000200BB40
:0C00BB00787FE4F6D8FD75811D0201027B
:1001FB00BB010689828A83E0225002E722BBFE0202
:09020B00E32289828A83E4932234
:1000C700020026E493A3F8E493A34003F68001F229
:1000D70008DFF48029E493A3F85407240CC8C3333A
:1000E700C4540F4420C8834004F456800146F6DF09
:1000F700E4800B0102040810204080900249E47E4E
:10010700019360BCA3FF543F30E509541FFEE493FD
:10011700A360010ECF54C025E060A840B8E493A3C4
:10012700FAE493A3F8E493A3C8C582C8CAC583CAEF
:10013700F0A3C8C582C8CAC583CADFE9DEE780BEA7
:01024C0000B1
:00000001FF
